:020000040800F2
:10000000FC3F0010215100082D52000851520008F9
:100010007552000899520008BD5200080000000007
:100020000000000000000000000000005DA90108C1
:10003000E152000800000000FDAA010855AB0108CC
:1000400005530008295300084D5300087153000858
:1000500095530008B9530008DD5300080154000807
:100060002554000849540008C1E601086D540008F1
:10007000B1E6010891540008B5540008D9540008AD
:1000800091E6010881E60108FD54000821550008A9
:1000900045550008695500088D550008B155000800
:1000A000D5550008F95500081D56000841560008AE
:1000B00065560008895600084DE60108AD5600084F
:1000C000D1560008F5560008195700083D5700089A
:1000D0006157000885570008A9570008CD57000848
:1000E000F157000815580008395800085D580008F5
:1000F00081580008A5580008C9580008A1E6010861
:10010000ED580008115900083559000859590008E0
:100110007D5900083DE60108A1590008C5590008AD
:10012000E95900080D5A0008315A0008555A0008CC
:10013000795A00089D5A0008C15A0008E55A00087B
:10014000095B00082D5B0008515B0008755B000827
:1001500071E60108995B000861E60108BD5B0008D3
:10016000E15B0008055C0008295C00084D5C0008A4
:10017000715C0008955C0008B95C0008DD5C000853
:10018000015D0008255D000880B59CB000AFF860F7
:10019000B9607A603B60BB68DBB2FB743B685A1C99
:1001A0003A601B78FB6607F11403184618F0C2FE8C
:1001B00007F1140207F1130310461946012219F042
:1001C0009FFD07F114031846B96FFA6F19F098FDF7
:1001D00007F1140318463968FA6E19F091FDFB68AF
:1001E000013307F114021046194619F0EFFDFB68C0
:1001F00010221A707037BD4680BD00BF80B586B032
:1002000000AF78600023FB6010F0BAF8434B1B6826
:10021000002B01D100F0E8F8414B1A687B681340CD
:10022000002B6ED17B68002B0ED008231A467B680A
:1002300013447B607B6803F00703002B04D07B68CA
:1002400023F0070308337B607B68002B59D0354BC4
:100250001B687A689A4254D8334B3B61324B1B6817
:100260007B6104E07B693B617B691B687B617B6927
:100270005A687B689A4203D27B691B68002BF1D1D4
:10028000264B1B687A699A423BD03B691B6808225F
:100290001344FB607B691A683B691A607B695A6882
:1002A0007B68D31A0822520093420FD97A697B687F
:1002B0001344BB607B695A687B68D21ABB685A607A
:1002C0007B697A685A60B86800F0E0F8154B1A68E4
:1002D0007B695B68D31A134A1360124B1A68134B7D
:1002E0001B689A4203D20F4B1B68104A13607B694C
:1002F0005A680B4B1B681A437B695A607B69002262
:100300001A6010F04BF8FB68002B01D102F0EEF9F7
:10031000FB6818461837BD4680BD00BFF08E002030
:10032000F48E002000000020E88E00200400002051
:1003300080B584B000AF78607B68FB607B68002B81
:100340003CD008235B42FA681344FB60FB68BB6047
:10035000BB685A681B4B1B681340002B04D11A481A
:100360004FF49C7102F0CCF9BB681B68002B04D0E1
:10037000154840F2391102F0C3F9BB685A68114BB5
:100380001B681340002B19D0BB681B68002B15D1CC
:10039000BB685A680B4B1B68DB431A40BB685A604A
:1003A0000FF0EEFFBB685A68084B1B681344074AFE
:1003B0001360B86800F06AF80FF0F0FF1037BD4620
:1003C00080BD00BFF48E002004AA020800000020B7
:1003D00080B400AF034B1B681846BD465DF8047B34
:1003E000704700BF0000002080B584B000AF214BF3
:1003F00023F00703FB60204AFB6813601E4B0022BA
:100400005A6047F6F872FB681344BB6008235B42EE
:10041000BA681344BB60194ABB681360174B1B686A
:1004200003F00703002B04D0154840F27D1102F0C1
:1004300067F9124B1B6800225A60104B1B680022A0
:100440001A60FB687B6047F6F87308229A1A7B688B
:100450005A600A4B1A687B681A600A4B1B680822AC
:100460009B1A084A1360084B4FF000421A6010377D
:10047000BD4680BDF00E0020E88E0020F08E0020EA
:1004800004AA020800000020F48E002080B485B089
:1004900000AF7860274BFB6002E0FB681B68FB60E5
:1004A000FB681A687B689A42F7D3FB68BB60FB68FD
:1004B0005B68BA681A447B689A4208D1FB685A683C
:1004C0007B685B681A44FB685A60FB687B607B68EA
:1004D000BB607B685B68BA681A44FB681B689A4219
:1004E00018D1FB681A68144B1B689A420DD07B68C0
:1004F0005A68FB681B685B681A447B685A60FB6833
:100500001B681A687B681A6008E00B4B1A687B68E6
:100510001A6003E0FB681A687B681A60FA687B68F7
:100520009A4202D0FB687A681A601437BD465DF8BB
:10053000047B7047E88E0020F08E002080B485B0E8
:1005400000AF7860314B1B687A689A42304B1B6869
:100550007A689A427B681B79002B7B681B88B3F50D
:10056000804F2A4B1B687A6812881344FB607A68B4
:10057000FB689A421FD0FB681B79002B1BD1244BD0
:100580001B68FA689A4216D0224B1A68FB689A4296
:1005900002D1204A7B681360FB681A887B681A8046
:1005A0001A4B1B68FA68128813447A68174909685D
:1005B000521A92B25A80154B1B687A6852881344BB
:1005C000BB60BA687B689A421AD0BB681B79002B63
:1005D00016D1104B1A687B689A4202D10D4ABB684B
:1005E00013607B681A88BB681A80084B1B687A689E
:1005F00012881344BA6805490968521A92B25A809F
:100600001437BD465DF8047B704700BFF88E0020AC
:10061000FC8E0020008F002080B582B000AF1C4B04
:10062000033323F003031A461A4B1A60194B1B6855
:100630007B607B684FF480421A807B6800225A807E
:100640007B6800221A71134B1B6803F58043124A22
:100650001360114B1B6801221A710F4B1B684FF47A
:1006600080421A800C4B1B684FF480425A80094B21
:100670001B680A4A13600A4B4FF48042A3F8922089
:10068000084819F0EFFE0346002B0837BD4680BD31
:10069000086A0120F88E0020FC8E0020008F0020C8
:1006A000C4AA0120048F002080B586B000AF786016
:1006B0007B68002B00D154E07B6803F00303002B20
:1006C000294B1B687A689A4204D3284B1B687A68C6
:1006D0009A42FFD3244B1B687A689A4204D3234B77
:1006E0001B687A689A420ED319F038FFF860204BE5
:1006F000B3F8983001339AB21D4BA3F89820F868EC
:1007000019F034FF2DE019F029FF78617B68083B70
:100710003B613B691B79002B3B6900221A71154B29
:100720001B683A699A4202D2124A3B691360104B25
:10073000B3F894203B690C4909685B1A99B23B698C
:100740001B88CB1A9BB213449AB2094BA3F894208E
:100750003869FFF7F3FE084B01221A70786919F027
:1007600005FF1837BD4680BDF88E0020FC8E0020A6
:10077000C4AA0120008F0020088F002080B588B017
:1007800000AF78600B467B807B8803339BB223F0FD
:1007900003037B807B880B2B01D80C237B807B8819
:1007A000B3F5804F01D90023D1E06B4B1B687A6809
:1007B0009A4204D3694B1B687A689A42FFD3664B0E
:1007C0001B687A689A4204D3644B1B687A689A4221
:1007D0000FD319F0C3FEB860614BB3F89830013302
:1007E0009AB25F4BA3F89820B86819F0BFFE7B68F7
:1007F000ADE07B68083BFB61FB69574A12689B1AB6
:100800007B83FB691A887B8BD31A9BB2083B3B83A3
:100810007A883B8B9A427A883B8B9A4201D9002393
:1008200095E07A883B8B9A4201D17B688FE019F082
:1008300095FE7861484B1B68FA69128813443B6146
:100840003B691B79002B3DD13B691B88FB817A8B6F
:100850007B8813449BB20833BB81424B1A683B69C7
:100860009A4205D13C4B1A68BB8913443D4A136038
:10087000394B1A68BB8913443B613B6900221A71EA
:100880003B69FA891A803B697A8B5A80FB69BA897D
:100890001A803B691B88B3F5804F06D02E4B1B682E
:1008A0003A6912881344BA895A802D4BB3F89420C0
:1008B00079883B8BCB1A9BB213449AB2284BA3F88E
:1008C00094203DE07B8803F114023B8B9A4237D899
:1008D0007A8B7B8813449BB20833BB811E4B1A680A
:1008E000BB8913443B611F4B1B683A699A4202D291
:1008F0001C4A3B6913603B6900221A71FB691A8824
:100900003B691A803B697A8B5A80FB69BA891A80E5
:100910003B691B88B3F5804F06D00F4B1B683A69C3
:1009200012881344BA895A800D4BB3F89420798801
:100930003B8BCB1A9BB213449AB2094BA3F8942079
:10094000094B01221A70786919F010FE7B6818466D
:100950002037BD4680BD00BFF88E0020FC8E0020F1
:10096000C4AA0120008F0020088F002080B588B025
:1009700000AF0346FB8000237B77FB88002B01D16F
:10098000002320E1FB8803339BB223F00303FB80A9
:10099000FB880B2B01D80C23FB80FB88B3F5804F21
:1009A00001D900230FE18A4819F092FD19F0D6FD14
:1009B000B86100237B77874B1B681A46864B1B6800
:1009C000D31AFB83E5E0844B1A68FB8B13443B612D
:1009D000824B00221A70B86919F0C8FD19F0BEFDEB
:1009E000B8617E4B1B78DBB2002B02D001237B77F2
:1009F000D6E03B691B79002B40F0C5803B691B8822
:100A00001A46FB8BD31AA3F10802FB889A42C0F066
:100A1000BA803B691B881A46FB8BD31AA3F10802E4
:100A2000FB8814339A4240D3FA8BFB8813449BB261
:100A30000833FB81684B1A68FB891344BB60BB68B1
:100A400000221A713B691A88BB681A80BB68FA8B4E
:100A50005A803B69FA891A803B6901221A71BB6886
:100A60001B88B3F5804F06D05B4B1B68BA681288B1
:100A70001344FA895A805A4BB3F89420FB881344E4
:100A80009BB208339AB2564BA3F89420544BB3F858
:100A90009620534BB3F894309A4228D2504BB3F877
:100AA00094204F4BA3F8962021E03B6901221A7154
:100AB0004B4BB3F894203B6919883B694648006862
:100AC0001B1A9BB2CB1A9BB213449AB2444BA3F8A5
:100AD0009420434BB3F89620414BB3F894309A429C
:100AE00005D23F4BB3F894203D4BA3F89620394BE9
:100AF0001B683A699A422ED1364B1B687B6114E021
:100B0000364B00221A70B86919F030FD19F026FD35
:100B1000B861324B1B78DBB2002B00D0E7E72E4BDD
:100B20001B687A69128813447B617B691B79002BEF
:100B300004D02C4B1B687A699A42E1D1254A7B6923
:100B40001360244B1A68274B1B689A4203D0214B31
:100B50001B681B79002BB86919F008FD1C4819F0B7
:100B6000C3FCFA883B69134408331E4A1268934257
:100B70003B6903F00303002B3B6903F00303002BE5
:100B80003B6908331FE0144B1A68FB8B13441B8826
:100B9000FB83FA8BFB88C3F580439A42FFF413AFC3
:100BA0007B7F002B7FF405AF0D4BB3F89030013302
:100BB0009AB20B4BA3F89020B86919F0D7FC0448FF
:100BC00019F092FC002318462037BD4680BD00BFB7
:100BD000048F0020008F0020F88E0020088F002056
:100BE000C4AA0120FC8E002080B500AF00F002F8FE
:100BF00080BD00BF80B592B000AF224A214B1B6C74
:100C000043F080531364204A1F4B1B6843F4404356
:100C100013600A237B6001233B6110237B61022365
:100C2000FB6100233B6210237B624FF4A873BB621D
:100C30000423FB6207233B630023FB600123BB61AA
:100C40003B1D184614F0AEF90346002B01D000F00E
:100C50001DF80F237B630223BB630023FB634FF468
:100C600080533B6400237B6407F134031846022160
:100C700014F0E4FB0346002B01D000F007F84837DE
:100C8000BD4680BD003802400070004080B500AF16
:100C900001480EF09DFFFEE760AA020880B586B00D
:100CA00004AF00237B6000F065FA104B1B68002B3B
:100CB0000FD002230093002301930023029300230B
:100CC00003930B480B494FF4807200230FF0DCF8BC
:100CD00078607B68002B04D107484FF4857101F0E0
:100CE0000FFD7B6818460837BD4680BD3C8F00204D
:100CF000050E00087CAA020884AA020880B588B004
:100D000000AFF860B9607A603B600023FB611D4B67
:100D10001B68002B30D0BB683B617B687B61FB6844
:100D2000BB61BB68052B1CDC10F032F90346022BBB
:100D30000BD1144B1A6807F1100310461946BA6A12
:100D400000231AF05FF8F86116E00E4B1A6807F1FD
:100D5000100310461946002200231AF053F8F861D8
:100D60000AE0084B1A6807F11003104619463A6862
:100D700000231AF011F9F861FB6918462037BD46C7
:100D800080BD00BF3C8F002080B586B002AF786088
:100D900039601A4B1B68DB68DB68FB60FB68043357
:100DA000184619F075FCFB68DB69012B1ED1FB6846
:100DB0009A697B681344F86819463A687B6800F0C2
:100DC000ADF80346012B11D100230093F8680021F0
:100DD0007A680023FFF792FFB860BB68002B05D14B
:100DE00007484FF4C27101F08BFCFFE7FB685B6AB8
:100DF000F86898471037BD4680BD00BF348F00208B
:100E000084AA020880B584B000AF786007F10803B7
:100E1000184600F03FF8F860BB68F868194600F023
:100E200003F800F0BDF8F1E780B584B000AF78605A
:100E300039600FF0A5FA07F10803184600F04EF8E4
:100E4000F860BB68002B1ED13B68002B0AD17A6882
:100E5000FB689A4206D80FF0A1FA7868F968FFF7A4
:100E600093FF12E00A4B19687A68FB68D31A0846A8
:100E700019461AF05DFB0FF091FA0346002B04D1DE
:100E800019F0F2FD01E00FF089FA1037BD4680BD80
:100E90003C8F002080B485B000AF78600E4B1B689B
:100EA0001B68002B0CBF01230023DBB21A467B68B2
:100EB0001A607B681B68002B05D1074B1B68DB6839
:100EC0001B68FB6001E00023FB60FB6818461437D9
:100ED000BD465DF8047B7047348F002080B584B038
:100EE00000AF78600FF0E4FAF8600B4B1B68FA680B
:100EF0009A4205D200F0E2F87B6801221A6002E013
:100F00007B6800221A60044AFB681360FB6818467D
:100F10001037BD4680BD00BF408F002080B586B031
:100F200000AFF860B9607A603B6000237B61FB68CA
:100F3000BA685A60FB68FA681A61BA687B689A42B4
:100F400012D87A683B68D21AFB689B699A4202D32E
:100F500001237B611BE0104B1A68FB6804331046C9
:100F6000194619F05DFB12E07A683B689A4206D296
:100F7000BA683B689A4202D301237B6107E0074BC2
:100F80001A68FB6804331046194619F049FB7B695F
:100F900018461837BD4680BD388F0020348F00209A
:100FA00080B58AB002AF74E0BB68002B71DB3B698F
:100FB000FB61FB695B69002B04D0FB6904331846B5
:100FC00019F066FB3B1D1846FFF788FFB861BB6848
:100FD000092B5DD801A252F823F000BF05100008CC
:100FE0000510000805100008931000085B100008A9
:100FF000891000080510000805100008931000086B
:101000005B100008FA68FB699B691A44FB68F86981
:101010001146BA69FFF782FF0346012B1CD1FB6919
:101020005B6AF8699847FB69DB69012B14D1FA68A0
:10103000FB699B691A4400230093F869002100238F
:10104000FFF75CFE78617B69002B05D1194840F2FF
:101050008A2101F055FBFFE71BE0FA68FB699A6102
:10106000FB699B69002B04D1124840F2A12101F0D9
:1010700047FBFB699A69BB691344F8691946BA6969
:10108000BB69FFF74BFF04E0F869FFF751F900E097
:1010900000BF094B1A6807F10803104619460022E1
:1010A000002319F0EBFF0346002B7FF47DAF2037C0
:1010B000BD4680BD84AA02083C8F002080B588B060
:1010C00002AF3FE0284B1B68DB681B687B61264B47
:1010D0001B68DB68DB683B613B690433184619F029
:1010E000D7FA3B695B6A386998473B69DB69012B32
:1010F00028D13B699A697B691344FB60FA687B6974
:101100009A420ED93B69FA685A603B693A691A619A
:10111000154B1A683B6904331046194619F080FADA
:1011200010E000230093386900217A690023FFF75B
:10113000E5FDB860BB68002B04D10C4840F2E62105
:1011400001F0DEFA084B1B681B68002BBAD1064B76
:101150001B687B60064B1B68034A1360044A7B686C
:1011600013601837BD4680BD348F002084AA020862
:10117000388F002080B500AF19F086FC164B1B6835
:10118000002B26D1154819F0FBF9154819F0F8F98C
:10119000144B124A1A60144B114A1A600A200C218F
:1011A000002219F09DFD02460B4B1A600A4B1B688A
:1011B000002B04D10D484FF4417101F0A1FA064B08
:1011C0001B68002B05D0044B1B68184608491AF011
:1011D00065F919F069FC80BD3C8F00200C8F002060
:1011E000208F0020348F0020388F002084AA02082E
:1011F000D0AA020880B400AFBD465DF8047B7047FA
:1012000080B500AF00F024FE074B1B780133DAB243
:10121000054B1A70044B1B7803F00103002B01D01F
:1012200000F0C2FB80BD00BF448F0020B0B586B087
:1012300002AF78600B46FB70FB78002B6CD07B68AC
:101240001B7E042B03D07B681B7E072B64D17B683D
:101250009B6F002B05D17B689B8D40F668329342D3
:101260005AD07B689B7F03F01003002B7B68186DBE
:101270007B68996A7D687B681C1D7B685A8B7B68DC
:101280009B8B009201932A46234627F00FFB786838
:1012900001F0B8F8754B1A687B689A4205D1734B18
:1012A0001B68DB68714A136019E0704B1B68704A59
:1012B000136010E06E4B1B68DA687B689A4205D1B8
:1012C0006B4B1B687A68D268DA6008E0684B1B6871
:1012D000DB68674A1360664B1B68002BEAD17B68AA
:1012E0000022DA60634B01221A707B681B7E042B9C
:1012F0000CD17B680A221A765F4B1A687B68DA6029
:101300005D4A7B6813600DF013FF03E002207968EB
:1013100005F07EFB0023A3E07B681B7E072B00F219
:101320008F8001A252F823F049130008B31300087C
:10133000CD130008ED13000809140008411400083B
:1013400041140008251400080023FB737B685B8BA5
:10135000002B27D0494B1A687B689A4205D1474B2E
:101360001B68DB68454A136019E0444B1B68404A20
:10137000136010E03E4B1B68DA687B689A4205D127
:101380003B4B1B687A68D268DA6008E0384B1B6810
:10139000DB68374A1360364B1B68002BEAD17B6849
:1013A0000022DA600220796805F032FB00237B60BE
:1013B0004BE00023FB733248796801F063F80320A7
:1013C000796805F025FB00237B603EE00023FB737A
:1013D0002648796801F056F8264B01221A7002203F
:1013E000796805F015FB00237B602EE0786826F015
:1013F0000DFB0346FB7397F90F30002B03D17B687D
:1014000005221A7621E020E0786826F0FFFA0346EC
:10141000FB7397F90F30002B03D17B6805221A76F6
:1014200013E012E0786826F0F1FA0346FB7397F9AF
:101430000F30002B03D17B6809221A7605E004E007
:101440000023FB7300237B6000BF7B68002B06D06A
:1014500097F90F30002B02D1786826F0FBFFFB7B59
:101460005BB218461037BD46B0BD00BF20AA0120B0
:101470002CAA01201CAA012034AA012030AA012094
:1014800028AA012080B582B000AF78607B681B7EFF
:10149000184601F0A9F87B681B7E012B06D07B68FB
:1014A0009B7F43F01003DAB27B689A77786801215A
:1014B000FFF7BCFE034618460837BD4680BD00BF97
:1014C000B0B58AB002AF786039607B681B7E012BB3
:1014D0007B681B7E0A2B08D14A48796800F0D2FF4E
:1014E0000220796805F094FA88E03B68002B05D06B
:1014F0007B681B7E002B01D0012300E00023FB61F1
:101500007B681B6DBB617B689B6A7B617B68D3F8E2
:101510008C303B617B681B69FB607B681B7E002B0A
:101520002CD17B685B8B002B28D0374B1A687B68EB
:101530009A4205D1344B1B68DB68334A136019E0CB
:10154000314B1B68314A136010E0304B1B68DA687E
:101550007B689A4205D12D4B1B687A68D268DA60A5
:1015600008E02A4B1B68DB68284A1360274B1B687E
:10157000002BEAD17B680022DA6006E02448796813
:1015800000F080FF234B01221A707B681B6F002B39
:1015900004D07B681B6F184600F018FD7B68DB6E7B
:1015A000002B04D07B68DB6E184600F00FFD7B68D3
:1015B0005B6F002B04D07B685B6F184600F006FD64
:1015C000FB69002B0ED07D687B681C1D7B685A8BE5
:1015D0007B689B8B00920193B86979692A46234600
:1015E00027F064F90220796805F012FA3B69002BB4
:1015F00004D03B69F8686FF00A0198472037BD4670
:10160000B0BD00BF34AA012030AA01202CAA0120BD
:1016100020AA01201CAA012080B582B000AF78600A
:1016200078680121FFF74CFF0837BD4680BD00BF39
:1016300080B485B000AF78607B689B6A7A68928DD1
:101640001344FB607B681B6B7A68D28E40F2B45106
:101650008A4202D87A68D28E01E040F2B452134432
:10166000FA68D31A002B08DB7B689A8D7B68DA85D1
:101670007B681B6BFA68D31A18E07B689A6A7B68F0
:101680001B6BD31A002B03DD7B680022DA850CE08C
:101690007B681A6B7B689B6AD31ABB60BB68B3F527
:1016A000803FBB689AB27B68DA85002318461437FE
:1016B000BD465DF8047B704780B584B000AF7860AC
:1016C0000B467B807B681B7E012B7B689A8D7B8819
:1016D00013449AB27B689A857B689B8D40F668328A
:1016E000934204D97B6840F668329A8510E07B68A3
:1016F0009B8D002B0CD17B681B7E072B03D07B6856
:101700001B7E092B04D17B6840F668329A85FFE77F
:101710007868FFF78DFF0346FB60FB6840F2D92233
:10172000934209DD7B689B7F43F00203DAB27B685A
:101730009A77786826F08EFE1037BD4680BD00BFD0
:1017400080B483B000AF0023BB801E4B1B885A1CA3
:1017500091B21C4A11804FF6FF72934203D1194B8C
:101760004FF440421A800023FB711FE0FB79164AB8
:1017700052F823301B683B6012E03B685A8B114BD8
:101780001B889A4209D1BB880133BB80BB88B3F563
:10179000804F01D300230EE0D7E73B68DB683B6056
:1017A0003B68002BE9D1FB790133FB71FB79032BFB
:1017B000DCD9044B1B8818460C37BD465DF8047B0A
:1017C000704700BF0800002094AB020880B58AB0C3
:1017D00000AFF860B9603B601346FB80FB681B7E7E
:1017E000002B01D0F723D1E0BB68002B0FD0BB68E2
:1017F000002B02D0BB681B6800E00023FA6853602E
:10180000FB68FA889A83FB68002B06D001E0FA2374
:10181000BCE0FB681B68002B19D1FB680433184639
:1018200005F082FF78627B6A002B02D07B6A04336A
:1018300000E000233B627B6A002B02D03B6A002B56
:1018400001D1FC23A2E03B6A1A68FB681A60FB68BE
:101850005B8BFB83FB685B8B002B0BD1FFF770FF6F
:1018600003461A46FB685A83FB685B8B002B01D149
:10187000FE238BE000F06AFEB861FB6800229A62EA
:10188000FB68BA691A65BB695A1EFB689A64BB6932
:101890005A1EFB68DA65FB6840F668329A85FB6879
:1018A00040F66832DA85FB689A6AFB681A63FB685F
:1018B00040F66832A3F86020FB684FF40672DA86BF
:1018C000FB68DA8EFB6804331046194600F052FEBE
:1018D00003461A46FB68DA86FB680122A3F84C200F
:1018E000FB68DB8E1A46920013445B009AB2FB68D9
:1018F000A3F84E20FB683A68C3F88420F8680221F8
:1019000026F066FC0346FB7597F91730002B3CD197
:10191000FB6802221A76FB8B002B27D01E4B1A681D
:10192000FB689A4205D11C4B1B68DB681A4A13609E
:1019300019E0194B1B68194A136010E0174B1B681C
:10194000DA68FB689A4205D1144B1B68FA68D268C2
:10195000DA6008E0114B1B68DB68104A13600F4B1C
:101960001B68002BEAD1FB680022DA600C4B1A6876
:10197000FB68DA600A4AFB6813600DF0D9FB094B7B
:1019800001221A70F86826F065FDFB7D5BB21846EF
:101990002837BD4680BD00BF30AA01202CAA0120F7
:1019A00020AA01201CAA0120B0B58AB002AF0023F2
:1019B0007B75884B1B680133864A1360864B1B7806
:1019C0000133DAB2844B1A700023BB61834B1B686E
:1019D000FB61EAE1FB691B7E002BFB691B7E012B8F
:1019E000FB691B7E0A2BFB6993F821207A4B1B783D
:1019F0009A4203D1FB69DB68FB61D6E1764B1A782A
:101A0000FB6983F821200023FB750023BB75FB696C
:101A10001B7E022B08D1FB6993F84630042B03D1BF
:101A2000FB7D0133FB7595E0FB6993F846300C2B89
:101A300003D1FB7D0133FB758CE0FB6993F89D308E
:101A4000002B27D0FB6993F89C300133DAB2FB6995
:101A500083F89C20FB6993F89C20FB6993F89D30E8
:101A6000013B5F49CB5C9A4274D3FB69002283F847
:101A70009C20FB6993F89D30062B07D8FB6993F8EF
:101A80009D300133DAB2FB6983F89D20F86927F0B5
:101A900093F85FE0FB699B8E1BB2002B07DBFB69B1
:101AA0009B8E9BB201339BB29AB2FB699A86FB690B
:101AB0001B6F002B4ED0FB699A8EFB69B3F8443044
:101AC00012B21BB29A4245DBFB691B7E022B16D079
:101AD000FB69B3F840301BB2DB109BB21AB2FB6952
:101AE000B3F842301BB21344FA6992F8462011460B
:101AF0003C4A525C93409AB2FB69A3F84420FB69CC
:101B000000229A86FB69B3F86020FB69B3F84C3079
:101B1000934228BF13467B827B8A5B089AB2FB699B
:101B2000A3F84E20FB69B3F84E20FB69DB8E5B0007
:101B30009BB29A4206D2FB69DB8E5B009AB2FB69CC
:101B4000A3F84E20FB69DA8EFB69A3F84C20F869F4
:101B500026F022FFFB691B7E062B0FD1FB699B7FC2
:101B600003F01003002B09D01A4B1A68FB695B6A5B
:101B7000D31A282B02D9FB7D0133FB75FB691B7A35
:101B800003F00803002B54D0FB691B7E042B03D009
:101B9000FB691B7E072B4CD10E4B1A68FB695B6AF5
:101BA000D21AFB69D3F89010FB69D3F89830F86922
:101BB000D0F8940000FB03F30B440B49A1FB031383
:101BC0005B099A4212D9FB7D0133FB75BB7D013362
:101BD000BB752EE024AA0120458F002020AA0120F9
:101BE0008CAB02087CAB0208D34D6210934B1A6891
:101BF000FB695B6AD21AFB69D3F89010FB6993F812
:101C00009E301846FB69D3F8943003FB00F30B4475
:101C10008B49A1FB03135B099A420AD9F86926F0A4
:101C200087FFFB6993F89E300133DAB2FB6983F8D2
:101C30009E20FB695B6F002B16D0804B1A68FB69F6
:101C40005B6AD11AFB69B3F844301AB213465B00E1
:101C500013445B00994207D3FB695B6F184600F0A1
:101C6000B5F9FB6900225A67FB691B7E032B09D17A
:101C7000724B1A68FB695B6AD31A282B02D9FB7D69
:101C80000133FB75FB691B7E092B09D16B4B1A686D
:101C9000FB695B6AD31AF02B02D9FB7D0133FB751C
:101CA000FB7D002B4BD0F86900F0ACFBBB69002B2F
:101CB00008D0644B1B68FA699A42FB69DA68BB6911
:101CC000DA6007E05F4B1A68FB699A42FB69DB68E0
:101CD0005C4A1360BB7D002B10D0FB69186DFB695B
:101CE000996AFD69FB691C1DFB695A8BFB699B8B1B
:101CF000009201932A46234626F0D8FDFB69D3F8CB
:101D00008C30FB60FB691B69BB60FB697B60FB6916
:101D1000DB68FB610220796804F07AFE4A4B0022FE
:101D20001A70FB68002B04D0FB68B8686FF00A01DA
:101D30009847454B1B78002B00D045E635E0FB6902
:101D4000BB61FB69DB68FB61BB69DB7F0133DAB236
:101D5000BB69DA77BB69DA7FBB6993F820309A42B6
:101D600023D3BB690022DA77374B00221A70BB6994
:101D7000D3F88830002B0AD0BB69D3F88830BA6911
:101D800012691046B969984703467B7501E0002344
:101D90007B752D4B1B78002B00D015E697F915307D
:101DA000002B02D1B86926F055FBFB69002B7FF4AC
:101DB00011AE0023BB61254B1B68FB6137E0FB695B
:101DC0001B7E0A2B0023FB751C4B1A68FB695B6AA0
:101DD000D31AF02B02D9FB7D0133FB75FB7D002B61
:101DE00020D0F86900F00EFBBB69002B08D0174B20
:101DF0001B68FA699A42FB69DA68BB69DA6007E036
:101E0000124B1A68FB699A42FB69DB680F4A136040
:101E1000FB693B60FB69DB68FB610220396804F009
:101E2000F7FD04E0FB69BB61FB69DB68FB61FB69F3
:101E3000002BC4D12037BD46B0BD00BF24AA01206D
:101E4000D34D621020AA01201CAA012034AA01202F
:101E500080B582B000AF254B1B780133DAB2234B3B
:101E60001A70234B1B687B603AE07B6893F8212053
:101E70001E4B1B789A4230D01C4B1A787B6883F833
:101E800021207B689B7F03F00103002B10D07B682F
:101E90009B7F43F00203DAB27B689A77786826F07A
:101EA000D9FA7B689B7F23F00303DAB27B689A77C9
:101EB0007B68DB683B607B689B6F002B0AD00D4B17
:101EC00000221A70786800F017F80A4B1B78002B74
:101ED00000D0C6E73B687B6002E07B68DB687B6024
:101EE0007B68002BC1D10837BD4680BD458F0020DF
:101EF00020AA01201CAA012090B585B000AF78600F
:101F00007B689B6F5B7BBB737B689B6FBB607B68F5
:101F100000229A677B68D3F88030002B0CD07B6856
:101F2000D3F880407B681B6918467968BA6800233B
:101F3000A0470346FB7307E000207968BA680023D6
:101F400000F094F80346FB7397F90F30002B2BD168
:101F5000BB7B03F02003002B32D07B689B8D40F6C7
:101F60006832934205D07B689B8D01339AB27B68BF
:101F70009A857B68D3F88030002B0CD07B68D3F82F
:101F800080407B681B691846796800220023A047BF
:101F90000346FB7301E00023FB7397F90F3013F145
:101FA0000B0F0DD1F5230CE097F90F3013F10B0F48
:101FB00001D1F52305E07B68BA689A67FB2300E04E
:101FC00000235BB218461437BD4690BD80B584B07F
:101FD00000AF786007E07B681B68FB60786800F002
:101FE00009F8FB687B607B68002BF4D11037BD4695
:101FF00080BD00BF80B582B000AF78607B68002BE9
:102000000FD07B685B68002B07D07B685B68184645
:1020100012F0FAF87B6800225A600420796804F014
:10202000F7FC0837BD4680BD80B584B000AF78604E
:1020300004200D4940F2E44204F058FCF860FB68CB
:10204000002B01D100230AE0F8687968102227F0FC
:102050007DFDFB685B68184612F05CF9FB6818466A
:102060001037BD4680BD00BFA4AB020880B584B068
:1020700000AFF860B9607A60FB707B68002B09D014
:102080007B681B89B8681946FFF716FB786812F061
:10209000BBF808E097F90330002B04D1B868FFF7CC
:1020A000F1F9034600E000235BB218461037BD4645
:1020B00080BD00BF80B588B000AF0346FB71FB79DF
:1020C000FB72FB79BB7200233B610023BB610023E1
:1020D000FB6000237B612E4B1B68FB6144E07B6946
:1020E000002B07D1FB691B7E092B03D0FB691B7EEC
:1020F000082B19D1FB695B7EBA7A9A4207D8254B27
:102100001A68FB695B6AD21AFB689A420BD3214BAF
:102110001A68FB695B6AD31AFB60FB697B61FB6928
:102120005B7EBB721DE01CE0FB695B7EFA7A9A4223
:1021300017D3FB695B7EFA7A9A4207D8154B1A6867
:10214000FB695B6AD21A3B699A420AD3114B1A683F
:10215000FB695B6AD31A3B61FB69BB61FB695B7E10
:10216000FB72FB69DB68FB61FB69002BB7D17B6904
:10217000002B03D07869FFF74FFA05E0BB69002B0D
:1021800002D0B869FFF748FA2037BD4680BD00BFCE
:1021900020AA012024AA012080B584B000AF00232A
:1021A0007B600023BB60114B1B68FB6012E0104B8F
:1021B0001A68FB685B6AD21A7B689A4207D30C4B99
:1021C0001A68FB685B6AD31A7B60FB68BB60FB68BC
:1021D000DB68FB60FB68002BE9D1BB68002B02D0F9
:1021E000B868FFF719FA1037BD4680BD34AA012040
:1021F00024AA012080B584B000AF0346FB71022001
:10220000514940F2695204F071FBF860FB68002B01
:102210002CD1FFF7C1FF02204B4940F26F5204F06E
:1022200065FBF860FB68002B15D1FB791846FFF7BA
:1022300041FF0220444940F2755204F057FBF86018
:10224000FB68002B07D0414BB3F8AE30013B9AB28C
:102250003E4BA3F8AE20FB68002B07D03B4BB3F8F6
:10226000AE30013B9AB2394BA3F8AE20FB68002B8D
:1022700065D0F8680021A02227F002FDFB68FA79FA
:102280005A76FB6840F66832A3F86620FB680022A5
:10229000A3F86820FB6840F668329A85FB6840F630
:1022A0006832DA85FB6800225A72FB68FF229A7254
:1022B000FB684FF40672DA86FB680622A3F8442016
:1022C000FB680022A3F84020FB680622A3F8422006
:1022D000FB684FF6FF729A86FB680122A3F84C2038
:1022E00000F034F9B860FB68BA689A65FB68BA68B0
:1022F0001A65FB68BA689A64FB68BA68DA65144BB9
:102300001A68FB685A62134B1A78FB6883F821201D
:10231000FB680022DA77FB680F4AC3F88020FB686D
:102320000E4AC3F89020FB680D4AC3F89420FB685E
:102330000922C3F89820FB68002283F89E20FB68DE
:1023400018461037BD4680BDA4AB0208C4AA0120C0
:1023500024AA0120458F00206D20000800DD6D00BB
:10236000F824010080B500AF4020FFF743FF03468B
:10237000184680BD80B483B000AF786039607B6858
:102380003A681A610C37BD465DF8047B704700BFA0
:1023900080B483B000AF786039607B681B7E012B0E
:1023A0007B683A68C3F880200C37BD465DF8047B33
:1023B000704700BF80B483B000AF786039607B683D
:1023C0001B7E012B7B683A68DA670C37BD465DF8E7
:1023D000047B704780B485B000AFF860B9601346E5
:1023E000FB71FB681B7E012BFB68BA68C3F8882071
:1023F000FB68FA7983F820201437BD465DF8047B2A
:10240000704700BF80B582B000AF78607B681B7EEC
:10241000002B34D07B681B7E0A2B30D07B681B7E60
:10242000012B2CD07B689B6F002B07D07B689B6FA8
:10243000184611F0E9FE7B6800229A677B685B6FA3
:102440001846FFF7C3FD7B6800225A677B684FF68A
:10245000FF729A867B68DB6E1846FFF7B7FD7B68D4
:102460001B6F1846FFF7B2FD7B680022DA667B68B7
:10247000DA6E7B681A677B680022A3F86A20083747
:10248000BD4680BD80B582B000AF786039607B68A2
:102490001A683B689A4205D17B681B68DA687B68DA
:1024A0001A6019E07B681B68274A136010E0264B0E
:1024B0001B68DA683B689A4205D1234B1B683A686F
:1024C000D268DA6008E0204B1B68DB681E4A1360A4
:1024D0001D4B1B68002BEAD13B680022DA6038688C
:1024E000FFF790FF3B681B7E0A2B13D03B681B7ED7
:1024F000012B0FD03B689B7F03F00103002B09D019
:102500003B689B7F43F00203DAB23B689A773868F6
:1025100025F0A0FF3B681B7E012B08D03B68DB6EDB
:10252000002B3B681B6F002B3B685B6F002B3B68ED
:1025300000221A763B6800225A8300F069F80346AD
:10254000002B0837BD4680BD2CAA012080B400AF07
:10255000064B1A68064B1B681344044A1360034B6E
:102560001B681846BD465DF8047B70470C000020D0
:1025700024AA012080B584B000AF03463960FB80F7
:10258000386805F0D1F8F860FB68002B01D1FB88B2
:1025900010E0FB685B8C7B81B7F90A30002B08D018
:1025A0007B89283B3B813A89FB88934228BF1346AD
:1025B000FB80FB8818461037BD4680BD80B582B0D1
:1025C00000AF78607B689B899BB218460DF076FB64
:1025D0000346DBB203F03F03DBB2184600F00EF80F
:1025E0000837BD4680BD00BF80B483B000AF03464E
:1025F000FB710C37BD465DF8047B704780B483B037
:1026000000AF0346FB710C37BD465DF8047B704795
:1026100080B483B000AF144B1B687B600BE07B6819
:102620001B7E002B7B681B7E012B7B681B7E0A2B8D
:102630007B68DB687B607B68002BF0D10B4B1B68F1
:102640007B6005E07B681B7E0A2B7B68DB687B6018
:102650007B68002BF6D101231BB218460C37BD4610
:102660005DF8047B704700BF20AA012034AA012036
:1026700080B400AF064BD3E90023013243F10003DD
:102680000349C1E90023BD465DF8047B704700BFE4
:10269000508F002080B400AF064BD3E900230132F5
:1026A00043F100030349C1E90023BD465DF8047B03
:1026B000704700BF488F002080B582B000AF7860BF
:1026C000396007480DF084FA06480DF081FA386841
:1026D0000DF07EFA04480DF07BFA18F001FAFEE7DF
:1026E000E4AB0208FCAB020818AC020880B500AFEE
:1026F00002480DF06DFA18F0F3F9FEE71CAC020881
:1027000080B588B000AF786039600023FB610F4866
:102710000DF05EFA38680DF05BFA7B6807F108028D
:1027200010460B491A460DF03DFA07F1080318460A
:102730000DF04EFA18F0A8F900BFFB69002BFCD091
:1027400018F0B2F92037BD4680BD00BF30AC02089A
:1027500048AC020890B58DB002AF78603960994BF3
:10276000B3F87A3001339AB2964BA3F87A207B689B
:102770005B68954A1360944B1B681846FFF71EFF71
:102780007B685B89132B08D88E4BB3F882300133FA
:102790009AB28C4BA3F8822091E38C4B1B691846AC
:1027A000396811F029F80346002B05D1874B1B69C6
:1027B00003F0F003E02B08D1824BB3F888300133EB
:1027C0009AB2804BA3F8882079E37B681A89804B02
:1027D0000093786806217F4B0AF0FAFC03463B839E
:1027E0003B8B002B0DD0784B1B681846FFF7E6FE9D
:1027F000744BB3F8803001339AB2724BA3F8802047
:102800005DE3714B1B689B899BB218460DF056FA2D
:1028100003461B0B9BB2FB75FB7D053B9BB29B00EC
:102820009AB26D4B1A806D4B00221A607B685B89EF
:102830001A46FB7D9B009A4258DA7B685B89132B12
:102840004BD9654B1B88BB8278686FF0130111F080
:10285000B7FC7B685A89604B1B889A427B681B686F
:10286000002B7B685A895C4B1A805B4B1B88BA8AA9
:102870009A422ED9584B1B885B429BB29BB21BB22B
:102880007868194611F09CFC0346FB74FB7C002B16
:102890007B681B685B68514A13604F4B1B88BA8A80
:1028A000D31A9BB23B827B681A683B8A5B429BB21D
:1028B0009BB21BB21046194611F082FC0346FB7412
:1028C000FB7C002B7B681A893B8AD31A9AB27B68FF
:1028D0001A817B685B89002B15E03A4BB3F8823094
:1028E00001339AB2374BA3F88220E8E2FB7D9BB21A
:1028F0001A469203D31A9B009BB29BB21BB2786814
:10290000194611F05DFC304B1C682F4B1B681B886F
:102910009BB218460DF0D2F9034623802A4B1C685F
:10292000294B1B685B889BB218460DF0C7F903461C
:102930006380254B1C68244B1B685B6818460DF0B0
:10294000E5F9034663606368254A13601E4B1C6803
:102950001D4B1B689B6818460DF0D8F90346A36011
:10296000A368204A1360184B1C68174B1B68DB894F
:102970009BB218460DF0A2F90346E381124B1B6887
:102980009B899BB218460DF099F90346DBB203F020
:102990003F03DAB2144B1A707B681A89124B1B780A
:1029A00003F00303002B14BF01230023DBB29BB20F
:1029B00013449AB20D4B1A8000233B620C4B1B68E8
:1029C0007B6258E0C4AA0120688F002064AA01201D
:1029D00074AA012070AA01206C8F0020708F002043
:1029E000788F00207C8F0020808F0020828F002035
:1029F00020AA01207B6A1B7E002B7B6A1B7E0A2B90
:102A00007B6A1B7E012B7B6A9A8B944B1B681B880D
:102A10009BB29A422AD17B6A5A8B904B1B685B8887
:102A20009BB29A4222D17B6A5A688D4BDB689A42EC
:102A30001CD17B6A1A688A4B1B699A4216D17B6A41
:102A4000DA687B6A9A423B6A002B0AD07B6ADA68B2
:102A50003B6ADA60834B1A687B6ADA60814A7B6A78
:102A600013607B6ADA687B6A9A4207E07B6A3B62A2
:102A70007B6ADB687B627B6A002BBBD17B6A002BA5
:102A80006BD1794B1B687B6228E07B6A1B7E0A2B2B
:102A90007B6A9A8B714B1B681B889BB29A421AD136
:102AA0007B6A5A8B6D4B1B685B889BB29A4212D132
:102AB0007B6A5A686A4BDB689A420CD17B6A1A6857
:102AC000674B1B699A4206D1786A00F0F3FA78687E
:102AD00011F09AFBFEE17B6ADB687B627B6A002B6C
:102AE000D3D100233B62614B1B68FB611AE0FB6999
:102AF0005A8B5A4B1B685B889BB29A420DD1FB697B
:102B00001A68574B1B699A4200D10EE0FB69002BF3
:102B10000BD0FB691B68002B07D0FB693B62FB698C
:102B2000DB68FB61FB69002BE1D1FB69002B14D052
:102B30003B6A002B0AD0FB69DA683B6ADA604B4BD0
:102B40001A68FB69DA60494AFB691360F86900F0AA
:102B5000DDF9786811F058FBBCE1404B1B689B899C
:102B60009BB218460DF0AAF80346DBB203F03F0310
:102B7000DBB21846FFF742FD7B6A002B00F065814F
:102B80007B6A1B7E1846FFF72FFD394B00221A6027
:102B90007B681A89364B1A81354A7B6853602F4B04
:102BA0001B68334AD360334B00221A60324B002239
:102BB0001A70324B1B7803F00803002B06D07B6899
:102BC0005B7B43F00103DAB27B685A737B6A9B6FCD
:102BD000002B17D0786AFFF78FF9034613F10B0F1C
:102BE00007D07B6A9B6F002B0CD0254B1B88002BDA
:102BF00008D0244BB3F87E3001339AB2214BA3F8AE
:102C00007E200FE1204A7B6A1360786A00F0BEFAEA
:102C10000346FB7697F91B3013F10B0F00F002818E
:102C2000154B1B7803F00803002B2FD07B6AD3F8D9
:102C30008C30002B08D07B6AD3F88C307A6A12690A
:102C400010466FF00B0198470648796AFFF71AFCA7
:102C50000220796A03F0DCFEE4E000BF688F002008
:102C600064AA012020AA012034AA012028AA012058
:102C7000588F0020888F0020848F0020808F0020B4
:102C8000828F0020C4AA012038AA0120934B1B7810
:102C900003F01003002B1CD07B6A9B7F03F0100312
:102CA000002B0DD17B6AD3F88C30002B08D07B6AC7
:102CB000D3F88C307A6A126910466FF00C0198478D
:102CC0008748796AFFF7DEFB0220796A03F0A0FEED
:102CD000A8E00023FB767B6AB3F86430002B1AD09F
:102CE0007B6AB3F86430FB817B6ADB6F002B0AD010
:102CF0007B6ADB6F7A6A1169FA890846796A9847B4
:102D00000346FB7601E00023FB7697F91B3013F1B5
:102D10000B0F00D186E0734B1B68002B3DD07B6A04
:102D20009B6F002B7B6A9B7F03F01003002B08D066
:102D30006C4B1B68184611F067FA786AFEF76CFC5A
:102D400070E07B6AD3F88030002B0ED07B6AD3F81A
:102D500080407B6A1A69634B1B681046796A1A4681
:102D60000023A0470346FB7609E05E4B1B6800206A
:102D7000796A1A460023FFF779F90346FB7697F93B
:102D80001B3013F10B0F00D14CE097F91B30002BD7
:102D900003D0544B1A687B6A9A67504B1B7803F038
:102DA0002003002B33D07B6A9B6F002B09D07B6AFA
:102DB0009B6F7A6A926F527B42F02002D2B25A73B2
:102DC00025E07B6A9B8D40F66832934205D07B6A92
:102DD0009B8D01339AB27B6A9A857B6AD3F88030E7
:102DE000002B0CD07B6AD3F880407B6A1B691846A5
:102DF000796A00220023A0470346FB7601E0002306
:102E0000FB7697F91B3013F10B0F00D10AE0364B1C
:102E100000221A60786A25F01DFB7B6A1B7E18462B
:102E2000FFF7E2FB304B00221A602E4B00221A60A3
:102E30002E4B5B68002B3DD02C4B5B68184611F085
:102E4000E3F92A4B00225A6034E0294B1B689B8926
:102E50009BB218460CF032FF034603F00403002B2C
:102E600025D1244BB3F8883001339AB2214BA3F813
:102E70008820204BB3F87E3001339AB21D4BA3F863
:102E80007E201D4B18681D4B1B881A461C4B1B6867
:102E9000D118174B1B685B889AB2154B1B681B88AF
:102EA0009BB200920193174A174B25F0FFFC7868FC
:102EB00011F0AAF9FFF7ACFB0346002B0AE00D4B1B
:102EC000B3F87E3001339AB20A4BA3F87E207868BB
:102ED00011F09AF92C37BD4690BD00BF848F0020B9
:102EE00020AA0120888F002038AA0120588F0020B6
:102EF000688F0020C4AA01207C8F0020828F0020D0
:102F0000788F002074AA012070AA012080B586B0B5
:102F100002AF78605C4B1B7803F00403002B01D0F8
:102F20000023ACE0584B1B7803F01003002B16D0A5
:102F3000564B1868564B1B881A46564B1B68D118BF
:102F4000554B1B685B889AB2534B1B681B889BB21E
:102F500000920193514A524B25F0A8FC8EE04A4B57
:102F60001B7803F00203002B00F088807B685B7EF7
:102F70001846FFF73FF9F860FB68002B09D1494B71
:102F8000B3F8843001339AB2464BA3F88420FF2370
:102F900075E0454B1A69FB681A60434BDA68FB68B9
:102FA0005A607B685A8BFB685A833B4B1B681B88B3
:102FB0009AB2FB689A83FB6803221A76354B1B682A
:102FC0005A1CFB689A62FB689A6AFB681A63314B69
:102FD0001B685A1EFB685A657B681A69FB681A6190
:102FE0007B685A69FB685A617B681B7A03F00C03A3
:102FF000DAB2FB681A722D4B1A68FB68DA602B4A4A
:10300000FB6813600CF094F8294B01221A70F868E1
:1030100001F058FC204B1B68DB899AB2FB68A3F8CF
:103020006020FB68B3F86020FB68A3F86220FB68AF
:10303000B3F86020FB68A3F84E20FB68DA8EFB68CB
:10304000043310461946FFF795FA03461A46FB6803
:10305000DA86F868122125F0BBF80346FB7297F96F
:103060000B30002B05D0F8680021FEF729FAFB7A17
:1030700005E0F86825F0EEF9034600E000235BB2B6
:1030800018461037BD4680BD808F00207C8F002001
:10309000828F0020788F0020688F002074AA012082
:1030A00070AA0120C4AA012064AA012020AA01203C
:1030B0001CAA012080B584B002AF78602B4B1B782E
:1030C00003F00403002B01D0002349E0274B1B78B9
:1030D00003F00203002B28D0254B1A687B689B6AFB
:1030E000D31A002B2BDB224B1A687B689B6A79680A
:1030F000898D0B44D31A002B21DC1E4B18681E4B04
:103100001B881A461A4B1B68D1181C4B1B685B881E
:103110009AB21A4B1B681B889BB200920193184A03
:10312000184B25F0C3FB00231AE0104B1B7803F06B
:103130000103002B03D0144B1A687B685A620E4BB4
:103140001B88002B0BD07B689B7F43F00203DAB215
:103150007B689A77786825F07DF9034600E00023C4
:103160005BB218460837BD4680BD00BF808F002087
:10317000788F00207C8F0020828F0020688F0020B5
:1031800074AA012070AA012024AA012080B586B06B
:1031900002AF78600023FB730023BB739A4B1B784C
:1031A00003F00403002B37D07B681B7E022B08D171
:1031B0007B681A6D954B1B689A4215D10123FB73EE
:1031C00012E0934B1A687B689B6AD31A002B0BDBC7
:1031D0008F4B1A687B689B6A7968898D0B44D31A78
:1031E000002B01DC0123FB73FB7B002B12D07B68DF
:1031F0001B7E002B874B1B7843F00803DAB2854B0C
:103200001A707B689B7F23F00103DAB27B689A77A0
:10321000F4230DE300230BE37B4B1B7803F0020345
:10322000002B10D07B681B7E022B0CD07B681B7E92
:10323000032B08D07B689B7F43F00203DAB27B68E4
:103240009A770023F4E27B689B7F03F01003002B46
:1032500003D1714B1A687B685A627B68002283F83D
:103260009E20786801F02EFB7B681B7E023B072BBB
:1032700000F2DC8201A252F823F000BF9D32000868
:103280005D3400088D350008B7350008CF360008DA
:103290008D35000867370008FD3700085A4B1B784A
:1032A00003F01003002B00F0BB80574B1B7803F09A
:1032B0000203002B00F0B4807B681B6FDB685B6847
:1032C00018460CF023FD03465A1C504B1B689A42CB
:1032D00040F0A6807B68B3F8663001339AB27B6811
:1032E000A3F866204A4B1B685A1C7B689A627B686D
:1032F0009A6A7B681A63454B1A687B689A64474BE5
:103300001B68DB899AB27B68A3F860207B68B3F8FE
:1033100060207B68A3F862203D4B1B685A1E7B68C7
:103320005A657B6804221A767B68DA8E7B680433E0
:1033300010461946FFF71EF903461A467B68DA86DF
:103340007B68DB8E1A46920013445B009AB27B685E
:10335000A3F84E207B68DB8E5B0041F21C129A4280
:1033600038BF1A467B68DB8E9B00934228BF13460A
:103370009AB27B68A3F84C207B68B3F86830002BC6
:103380007B68B3F86830013B9AB27B68A3F8682089
:103390007B681B6FBB60BB681A687B681A67B8687C
:1033A000FEF728FE7B681B6F002B04D17B684FF66D
:1033B000FF729A8606E07B6800229A867B6800226C
:1033C00083F846207B68D3F88430002B0BD07B68D1
:1033D000D3F884307A6812691046796800229847D9
:1033E0000346BB7301E00023BB7397F90E3013F162
:1033F0000B0F01D1F5231BE27B689B7F43F0020397
:10340000DAB27B689A7728E0808F00207C8F0020DA
:10341000788F0020848F002024AA0120688F00204C
:10342000964B1B7803F01003002B16D0944B1868B2
:10343000944B1B881A46944B1B68D118934B1B68FE
:103440005B889AB2914B1B681B889BB200920193D8
:103450008F4A904B25F02AFAE9E1E8E1874B1B7887
:1034600003F01003002B7FD0854B1A687B689B6CA0
:10347000D31A013B002B5FDB814B1A687B681B6D05
:10348000D31A002B58DC7B6804221A767B685B69B0
:10349000002B7B685B69002B0AD07B685B697A68CC
:1034A000126910467968002298470346BB7301E011
:1034B000F223BB7397F90E30002B09D097F90E3029
:1034C00013F10B0F02D07868FEF7A6F8F523AFE1F1
:1034D000786800F037FA7B68B3F86430002B07D0C7
:1034E0007B68B3F86430013B9AB27B68A3F8642030
:1034F0007B68DB8E5B0041F21C129A4238BF1A4691
:103500007B68DB8E9B00934228BF13469AB27B6890
:10351000A3F84C20604B1B7803F02003002B0AD04B
:103520007B689B7F43F00203DAB27B689A777B6803
:1035300007221A7617E016E0514B1868514B1B888A
:103540001A46514B1B68D118504B1B685B889AB2C6
:103550004E4B1B681B889BB2009201934C4A4D4B0B
:1035600025F0A4F911E010E0444B1B7803F00203AE
:10357000002B0AD07B689B6A5A1E434B1B689A42F9
:1035800003D1786825F038FA51E150E1786800F00D
:10359000D9F9414B1B7803F02003002B0AD07B683C
:1035A0009B7F43F00203DAB27B689A777B6807223D
:1035B0001A763CE13BE1786800F0C4F9364B1B78A1
:1035C00003F02003002B71D02C4B1B7803F0100369
:1035D000002B47D07B681A6D294B1B689A4241D15A
:1035E0007B689B7F43F00203DAB27B689A77786846
:1035F000FEF708FF294B1A687B689A4205D1274BD2
:103600001B68DB68254A136019E0244B1B68244AB9
:10361000136010E0224B1B68DA687B689A4205D180
:103620001F4B1B687A68D268DA6008E01C4B1B6885
:10363000DB681B4A13601A4B1B68002BEAD17B68BE
:103640000022DA60174B01221A707B680A221A7670
:10365000154B1A687B68DA60134A7B6813600BF0BD
:1036600067FD33E07B689B7F43F00203DAB27B683F
:103670009A777B6808221A7628E000BF808F0020A6
:103680007C8F0020828F0020788F0020688F0020A0
:1036900074AA012070AA0120848F002020AA012092
:1036A0002CAA01201CAA012034AA0120634B1B78FC
:1036B00003F01003002B09D07B681A6D604B1B6868
:1036C0009A4203D17B6806221A76B0E0AFE07868B0
:1036D00000F038F95B4B1B7803F02003002B41D03E
:1036E0007B689B7F43F00203DAB27B689A77786845
:1036F000FEF788FE544B1A687B689A4205D1524BFC
:103700001B68DB68504A136019E04F4B1B684F4A37
:10371000136010E04D4B1B68DA687B689A4205D154
:103720004A4B1B687A68D268DA6008E0474B1B682E
:10373000DB68464A1360454B1B68002BEAD17B6867
:103740000022DA60424B01221A707B680A221A7644
:10375000404B1A687B68DA603E4A7B6813600BF066
:10376000E7FC64E063E0786800F0ECF8334B1B782A
:1037700003F01003002B40D07B681A6D304B1B68A0
:103780009A423AD17868FEF73DFE2F4B1A687B6863
:103790009A4205D12C4B1B68DB682B4A136019E059
:1037A000294B1B68294A136010E0284B1B68DA6814
:1037B0007B689A4205D1254B1B687A68D268DA602B
:1037C00008E0224B1B68DB68204A13601F4B1B6814
:1037D000002BEAD17B680022DA601D4B01221A70AF
:1037E0007B680A221A761B4B1A687B68DA60194AD2
:1037F0007B6813600BF09CFC19E018E0786800F01F
:10380000A1F80E4B1B7803F01003002B0DD07B6842
:103810001A6D0B4B1B689A4207D10A4B1B7843F079
:103820001003DAB2074B1A7001E000E000BF00237A
:103830005BB218461037BD4680BD00BF808F0020A8
:103840007C8F0020848F002020AA01202CAA012038
:103850001CAA012034AA0120B0B584B000AF786062
:1038600039607B68DB689B899BB218460CF026FAAE
:10387000034603F00103002B05D03868FEF7A6FBD2
:1038800000233B6055E020E03B68DB689B899BB2EE
:1038900018460CF013FA034603F00103002B0CD07A
:1038A0007B68DC687B68DB689B899DB201200CF03B
:1038B000EFF903462B439BB2A3813B68FB603B6857
:1038C0001B683B60F868FEF795FB3B68002B0ED049
:1038D0007B681B891A461A4B1B681A443B68DB68D5
:1038E0005B68396809890B44D31A002BCCDA3B6832
:1038F000002B1ED07B681B891A46114B1B681A448B
:103900003B68DB685B68D31A002B12DD3B68DB6821
:103910005B689AB20A4B1B689BB2D31A9AB27B6857
:103920001A817B685A687B681B891046194610F01B
:103930004FFB7B683A681A601037BD46B0BD00BFC8
:10394000788F0020F0B58DB000AF78600023BB61A8
:103950007B681B7E032BA44B1B7803F01003002B0A
:1039600000F0D1827B68B3F860301A467B689B6DAB
:1039700013447B617B685A6D9C4B1B68D31A002BE8
:103980001BDB7B685A6D994B1B689A4206D17B689A
:103990009A6D974B1B68D31A002B0EDB7B689A6DD0
:1039A000934B1B689A4241D1924B1B68DB899AB2B8
:1039B0007B68B3F860309A4238D98E4B1B68DB893C
:1039C0009AB27B68A3F860207B68B3F862207B68BA
:1039D000B3F860309A4205D27B68B3F860207B6808
:1039E000A3F86220814B1A687B685A65804B1A687D
:1039F0007B689A657B68B3F86030002B0DD17B68DB
:103A000093F89D30002B11D17B68002283F89C2015
:103A10007B68012283F89D2008E07B6893F89D3045
:103A2000002B03D07B68002283F89D20704B1A681E
:103A30007B689B6CD31A002B5CDC7B680022A3F8AC
:103A400064206D4B1B88002B4BD17B689B6D7A6883
:103A5000B2F860201A447B699A4242D17B689B8EFF
:103A60001BB2002B3DDB7B689A6C614B1B689A4252
:103A700037D10123BB617B6893F847300133DAB259
:103A80007B6893F847309A4207D97B6893F84730B0
:103A90000133DAB27B6883F847207B6893F84730BC
:103AA000032B16D97B68B3F84C207B68DB8E13445C
:103AB0009AB27B68B3F84C309A4212D97B68B3F85B
:103AC0004C207B68DB8E13449AB27B68A3F84C20B1
:103AD00007E07B6893F84730032B02D1786824F025
:103AE000D5FFBB69002B40F02F817B68002283F853
:103AF00047207DE13E4B1A687B689B6CD31A013BE3
:103B0000002BC0F21A813A4B1A687B681B6DD31ADE
:103B1000002B00F312817B689B7F03F00403002BD2
:103B20000CD07B689B7F23F00403DAB27B689A7722
:103B30007B68B3F84E207B68A3F84C207B6800229A
:103B400083F846207B68B3F840301BB2DB109BB291
:103B50009AB27B68B3F842309BB213449BB29AB2DC
:103B60007B68A3F84420224B1B689AB27B689B6C4D
:103B70009BB2D31A9AB27B68A3F864207B68B3F82F
:103B800066207B68B3F8643013449AB27B68A3F86C
:103B900066207B68002283F84720154B1A687B68F3
:103BA0009A647B681B7E032B44D97B68B3F84C2056
:103BB0007B68B3F84E309A4220D27B68B3F84C2031
:103BC0007B68DB8E13449AB27B68B3F84C309A4220
:103BD00030D97B68B3F84C207B68DB8E13449AB2F3
:103BE0007B68A3F84C2071E0808F0020788F002044
:103BF0007C8F0020688F0020828F00207B68B3F8C4
:103C00004C207B68DB8E19467B68DB8E03FB01F35F
:103C10007968B1F84C1093FBF1F39BB213447B82AB
:103C20007B68B3F84C307A8A9A4203D97B687A8AE7
:103C3000A3F84C204AE07B681B6FFB627B681B6F1C
:103C40001A687B681A677B68B3F86840FB6A5B6830
:103C5000184610F047FB03469BB29C427B68B3F8C2
:103C60006430002B13D0FB6ADB689B899BB218463B
:103C70000CF024F8034603F00103002B07D07B6807
:103C8000B3F86430013B9AB27B68A3F86420FB6A06
:103C90005B68184610F026FB034619467B68B3F8AC
:103CA00068208BB2D31A9AB27B68A3F86820F86AAE
:103CB000FEF7A0F97B68B3F86830002B06D07B686C
:103CC0001B6F002B02D17B68DB6E002B7B681B6FA8
:103CD000002B22D07B681B6FDB685B6818460CF0FA
:103CE00015F804467B681B6F1B891D467B681B6F9C
:103CF000DB689B899BB218460BF0E0FF034603F09C
:103D00000303002B01D0012300E000232B44E21821
:103D10009F4B1B68D31A002B8DDD7B681B6F002B1C
:103D200004D17B684FF6FF729A8602E07B6800221E
:103D30009A867B680022DA7706E07B680022A3F887
:103D40006420786824F03CFB52E07B68DB6EFB6209
:103D50007B68DB6E1A687B68DA667B68DB6E002B3B
:103D600003D17B680022A3F86A207B68B3F868401F
:103D7000FB6A5B68184610F0B5FA03469BB29C429A
:103D80007B68B3F86430002B13D0FB6ADB689B8937
:103D90009BB218460BF092FF034603F00103002B81
:103DA00007D07B68B3F86430013B9AB27B68A3F814
:103DB0006420FB6A5B68184610F094FA03461946C3
:103DC0007B68B3F868208BB2D31A9AB27B68A3F8E9
:103DD0006820F86AFEF70EF97B68B3F86830002BAC
:103DE00006D07B681B6F002B02D17B68DB6E002B3B
:103DF0007B68DB6E002B2AD0654B1C687B68DB6E12
:103E0000DB685B6818460BF081FF05467B68DB6E5C
:103E10001B891E467B68DB6EDB689B899BB218465C
:103E20000BF04CFF034603F00303002B01D00123EA
:103E300000E0002333442B44E31A002B07DB544BF0
:103E40001A687B681B6DD31A002B7FF77EAF7B68E7
:103E50009B6B002B57D07B68DA6B4D4B1B68D31ADA
:103E6000002B50DA4B4B1B689AB27B689B6B9BB262
:103E7000D31A9BB2FB83FA8B7B68B3F840301BB23A
:103E8000DB109BB29BB2D31A9BB2FB837B68B3F867
:103E900040309AB2FB8B13449BB29AB27B68A3F872
:103EA0004020B7F91E30002B03DAFB8B5B429BB23C
:103EB000FB83FA8B7B68B3F842301BB29B109BB23A
:103EC0009BB2D31A9BB2FB837B68B3F842309AB2A1
:103ED000FB8B13449BB29AB27B68A3F842207B68A9
:103EE000B3F840301BB2DB109BB29AB27B68B3F8D8
:103EF00042309BB213449BB29AB27B68A3F8442031
:103F00007B6800229A63244B1B88002B00F07B8483
:103F10007B681B7E062B00F276847B689A6A1F4BB7
:103F20001B68D31A013B002BC0F284807B689A6A1D
:103F3000194B1B881946194B1B680B44D31A0133C4
:103F4000002B77DC7B689A6A144B1B68D31A3B62A0
:103F5000134B5B687B62124B5B68002B3B6A47F636
:103F6000FE7293420E4B5B685B891A463B6A9A422B
:103F70003ADA0B4B5B681B891A463B6A9A42084B3C
:103F80005B681A893B6A9BB2D31A3B8219E000BF77
:103F90007C8F002024AA0120828F0020788F0020AF
:103FA000588F00207B6A5B891A463B6A9B1A3B62EA
:103FB0007B6A3A8A1A817B6A00225A817B6A1B6873
:103FC0007B627B6A5B891A463B6A9A42EADB3B6A00
:103FD0009BB25B429BB29BB21BB2786A194610F04F
:103FE000EFF80346002B0DE0974B5A683B6A9BB2F3
:103FF0005B429BB29BB21BB21046194610F0E0F830
:104000000346002B904B1A89904B1B6899B27B6832
:104010009B6A9BB2CB1A9BB213449AB28A4B1A8109
:10402000894BDB687A68926A88490A60874A126815
:104030005A600DE0854B1A687B689B6AD31A002B87
:1040400006DA7B689B7F43F00203DAB27B689A77DB
:104050007E4B1A687B689B6AD31A002BC0F2CE8312
:104060007A4B1A687B689B6A7968898D0B44D31AEE
:104070000133002B00F3C2837B689A6A734B1B6881
:104080009A4240F05782704B1C896F4BDB689B89CA
:104090009BB218460BF012FE034603F00303002BFD
:1040A00001D0012300E0002323449AB2684B1A8018
:1040B0007B689A8D664B1B889A4269D2624BDB689B
:1040C0009B899BB218460BF0F9FD034603F00103F0
:1040D000002B1ED05C4BDC685B4BDB689B899BB282
:1040E0009BB223F47C539DB2574BDB689B899BB2F8
:1040F00018460BF0E3FD034603F03E039BB218465F
:104100000BF0C6FD03469BB22A4613439BB29BB2FB
:10411000A3817B689A8D4C4B1A814B4BDB689B8942
:104120009BB218460BF0CAFD034603F00203002BB6
:1041300005D0454B1B89013B9AB2434B1A81424B38
:104140005A68414B1B89104619460FF041FF3E4B00
:104150001C893D4BDB689B899BB218460BF0AEFD7A
:10416000034603F00303002B01D0012300E00023EA
:1041700023449AB2364B1A80354B1B881A46334B70
:104180001B681A447B689B6A7968898D0B449A4244
:104190007B685B6F002B00F0D2802B4BDB689B8928
:1041A0009BB218460BF08AFD034603F00103002B77
:1041B00010D00AE07B685B6FFB607B685B6F1A68FE
:1041C0007B685A67F868FDF715FF7B685B6F002B0B
:1041D000F0D1B4E07B685B6FFB6248E0FB6ADB68B0
:1041E0009B899BB218460BF069FD034603F001035F
:1041F000002B34D0144BDB689B899BB218460BF024
:104200005DFD034603F00203002B28D10E4BDC6852
:104210000D4BDB689B899DB201200BF039FD0346F5
:104220002B439BB2A381084B1C89074BDB689B89FE
:104230009BB218460BF042FD034603F00303002B2C
:1042400008D0012307E000BF588F0020788F00209E
:10425000828F0020002323449AB2884B1A80FB6A85
:10426000BB62FB6A1B68FB62B86AFDF7C3FEFB6AB0
:10427000002B0ED0814B1B881A46814B1B681A44B9
:10428000FB6ADB685B68F96A09890B44D31A002B67
:10429000A4DAFB6A002B4FD0784B1B881A46784B68
:1042A0001B681A44FB6ADB685B68D31A002B43DD8A
:1042B000FB6ADB685B689AB2714B1B689BB2D31ACE
:1042C0009AB2704B1A816F4BDB689B899BB2184680
:1042D0000BF0F4FC034603F00203002B05D0694BFE
:1042E0001B89013B9AB2674B1A81664B5A68654B32
:1042F0001B89104619460FF06BFE624B1C89614BFF
:10430000DB689B899BB218460BF0D8FC034603F090
:104310000303002B01D0012300E0002323449AB2C1
:10432000564B1A80554B1B881A46554B1B681A442E
:10433000FB6ADB685B689A427B68FA6A5A674F4B94
:104340001B881A464E4B1B681A447B689A627B682E
:104350009A8D4A4B1B889A427B689A8D474B1B88E3
:10436000D31A9AB27B689A857868FDF761F9454B54
:104370005B681B89002B06D0424B5B68424A136086
:10438000404B00225A603F4BDB689B899BB218462A
:104390000BF094FC034603F00103002B06D03B4BCB
:1043A0001B7843F02003DAB2384B1A7098E07B6830
:1043B0005B6FBB607B685B6FDB685B68304A136078
:1043C000BB681B891C46BB68DB689B899BB218468F
:1043D0000BF074FC034603F00303002B01D0012310
:1043E00000E0002323447A68926A1A447B689A6248
:1043F0007B689B8D1C46BB681B891D46BB68DB68C0
:104400009B899BB218460BF059FC034603F003034B
:10441000002B01D0012300E000232B449C42BB6809
:104420001B891C46BB68DB689B899BB218460BF056
:1044300045FC034603F00303002B01D0012300E0F9
:104440000023E1187B689A8D8BB2D31A9AB27B68ED
:104450009A857868FDF7ECF8BB685B681B89002BD0
:104460001DD0094B1B68002B12D0074B1A68BB6884
:104470005B68104619460FF063FF0DE0828F002045
:10448000788F0020588F0020888F0020848F002094
:10449000BB685B687F4A1360BB6800225A60BB68D8
:1044A000DB689B899BB218460BF008FC034603F0BF
:1044B0000103002B0DD0784B1B7843F02003DAB2B8
:1044C000754B1A707B681B7E042B02D17B68072218
:1044D0001A76BB681A687B685A67B868FDF78AFD68
:1044E0007B685B6F002B08D07B685B6FDB685A686A
:1044F0007B689B6A9A423FF45AAF7B689B7F03F0CC
:104500000103002B0ED07B689B7F23F00103DAB2FE
:104510007B689A777B689B7F43F00203DAB27B6803
:104520009A776AE17B689B7F43F00103DAB27B688C
:104530009A7767E1786823F043FF7B685B6F002B15
:1045400006D15648FDF770FD02467B685A6754E174
:104550000023BB627B685B6FFB624AE1FB6ADB683E
:104560005A684F4B1B689A421DD14C4B1A89FB6A03
:104570001B899A4216D94948FDF756FDB860BB68B9
:10458000002B0ED0BB6A002B03D0BB6ABA681A603E
:1045900002E07B68BA685A67B868F96AFFF75CF9A5
:1045A0002BE12AE129E1BB6A002B17D13C4B1A68A9
:1045B000FB6ADB685B68D31A002B4FDA3748FDF7DC
:1045C00033FDB860BB68002B07D07B68BA685A67B8
:1045D000B868F96AFFF740F90FE10EE1304B1A684D
:1045E000BB6ADB685B68D31A013B002B36DB2C4BC4
:1045F0001A68FB6ADB685B68D31A0133002B2DDC79
:104600002648FDF711FDB860BB68002B25D0BB6ABA
:10461000DB685B68BA6A12891A44214B1B68D31A9B
:10462000002B12DD1E4B1B689AB2BB6ADB685B680D
:104630009BB2D31A9AB2BB6A1A81BB6A5A68BB6A28
:104640001B89104619460FF0C3FCBB6ABA681A6092
:10465000B868F96AFFF700F9CFE0CEE0FB6A1B68A3
:10466000002B40F0C1800E4B1A68FB6ADB685B6868
:10467000D31A002B40F3B880FB6ADB689B899BB29E
:1046800018460BF01BFB034603F00103002B09D077
:10469000B3E000BF888F0020848F0020588F002057
:1046A000788F00206648FDF7BFFC0246FB6A1A605F
:1046B000FB6A1B68002B00F09680FB6ADB685B6876
:1046C000FA6A12891A445F4B1B68D31A002B12DD59
:1046D0005C4B1B689AB2FB6ADB685B689BB2D31ABF
:1046E0009AB2FB6A1A81FB6A5A68FB6A1B891046F8
:1046F00019460FF06DFC544B1B881A46514B1B6832
:104700001A447B689B6A7968898D0B449A426AD9FE
:10471000FB6A1B68DB689B899BB218460BF0CEFADC
:10472000034603F00103002B21D0FB6A1B68DC6801
:10473000FB6A1B68DB689B899BB29BB223F47C53AA
:104740009DB2FB6A1B68DB689B899BB218460BF025
:10475000B5FA034603F03E039BB218460BF098FAF5
:1047600003469BB22A4613439BB29BB2A381FB6ACA
:104770001B687A68926A91B27A68928D0A4491B203
:10478000304A126892B28A1A92B21A81FB6A1B6886
:104790005A68FB6A1B681B89104619460FF018FC03
:1047A000FB6A1B681C89FB6A1B68DB689B899BB2E0
:1047B00018460BF083FA034603F00303002B01D0E5
:1047C000012300E0002323449AB21F4B1A801E4BA2
:1047D0001B881A461B4B1B681A447B689B6A7968C6
:1047E000898D0B449A4208E0FB6ABB62FB6A1B6836
:1047F000FB62FB6A002B7FF4B1AE03E0786823F024
:10480000DFFD19E018E00F4B1A687B689B6AD31A2A
:10481000002B0ADB0B4B1A687B689B6A7968898DD1
:104820000B44D31A0133002B06DD7B689B7F43F0DA
:104830000203DAB27B689A773437BD46F0BD00BF19
:10484000588F0020788F0020828F002080B483B0A2
:1048500000AF184B1B68002B05D0174B1A88174B5D
:104860001B889A420ED2164B1B6814333B60124BC6
:104870001B885A1C91B2104A11801A463B68134497
:104880001B7810E00C4B1B885A1C91B20A4A11800D
:10489000DAB20A4B1B88DBB2D31AFB71054B1A68DC
:1048A000FB7913441B7818460C37BD465DF8047B32
:1048B000704700BF708F0020748F00206C8F002025
:1048C000688F002080B584B000AF7860364B1B68DD
:1048D0009B899BB218460BF0F1F903461B0B9BB268
:1048E000052B5ED9304B1B689B899BB218460BF099
:1048F000E5F903461B0B9BB2053B9BB29B00FB817A
:104900002A4B00221A8045E0FFF7A0FF03467B7385
:104910007B7B012B3ED0022B02D0002B40D027E026
:10492000FFF794FF0346042B05D1204B1B889A1CEC
:10493000FB899A4200DD34E0FFF788FF03469BB213
:104940001B027B81FFF782FF03469AB27B891343E8
:104950007B817B8940F2B452934204D87B89002B3F
:1049600001D07A8901E040F2B4527B68DA8611E026
:10497000FFF76CFF03467B727B7A012B00D810E0B7
:104980007B7A9AB2094B1B8813449BB2023B9AB2C2
:10499000064B1A80054B1B88FA899A42B4D800E06E
:1049A00000BF1037BD4680BD688F0020748F002087
:1049B00080B582B000AF78607B689A687B689B891D
:1049C000104619461AF00CFD02467B685A607B6857
:1049D000184615F015FD0837BD4680BD80B58AB074
:1049E00000AF78600B467B80074BFB607B68BB6148
:1049F0007B88BB8307F10C03184604F0A9FA7B6996
:104A000018462837BD4680BDB149000880B582B040
:104A100000AF78607B689B6818461AF00BFD024671
:104A20007B685A607B68184615F0EAFC0837BD467B
:104A300080BD00BF80B58AB000AF7860064BFB60D8
:104A40007B68BB6107F10C03184604F081FA7B69AF
:104A500018462837BD4680BD0D4A000880B582B093
:104A600000AF78607B689B6818461AF01DFD7B6874
:104A7000184615F0C5FC0837BD4680BD80B58AB024
:104A800000AF7860054BFB607B68BB6107F10C03EE
:104A9000184604F05DFA2837BD4680BD5D4A00081F
:104AA00080B582B000AF78607B68002B01D1012314
:104AB0006AE07B685B7FDBB2002B02D1786801F093
:104AC00043F97B6802225A777B681B68CA225A62C4
:104AD0007B681B6853225A62786800F0A3FA034689
:104AE000002B08D07B681B68FF225A627B68042277
:104AF0005A77012348E07B681A687B681B689B68CB
:104B000023F4E00323F0400393607B681B687A681A
:104B1000126891687A6850687A68126910437A68F6
:104B2000526902430A439A607B681B687A68D268BC
:104B30001A617B681B687A68126811697A689268E2
:104B400012040A431A617B681B687A681268D2688B
:104B500022F08002DA607B681B687A681268126C47
:104B600022F480221A647B681B687A681268116CD0
:104B70007A6892690A431A647B681B68FF225A624A
:104B80007B6801225A77002318460837BD4680BD4E
:104B900090B587B000AFF860B9607A6000237B61A0
:104BA000FB681B7F012B01D10223B2E0FB680122CD
:104BB0001A77FB6802225A777B68002B26D1FB68A4
:104BC0001B689B6803F04003002B02D1BB680022E6
:104BD0001A72BB681B78184600F052FA03461C0490
:104BE000BB685B78184600F04BFA03461B021C4377
:104BF000BB689B78184600F043FA034644EA030278
:104C0000BB681B7A1B0413437B6120E0FB681B68B5
:104C10009B6803F04003002B07D0BB681B78184645
:104C200000F04CFA03467B6102E0BB6800221A7276
:104C3000BB681B781A04BB685B781B021343BA6815
:104C400092781A43BB681B7A1B0413437B61FB6891
:104C50001B68CA225A62FB681B6853225A62F868B2
:104C600000F0E0F90346002B0BD0FB681B68FF2225
:104C70005A62FB6804225A77FB6800221A770123E4
:104C800047E0FB681A687B6903F07F3323F0FE433B
:104C90001360FB681B68FA681268926822F480222D
:104CA0009A60FB681B68FA6812689168BA68D068F5
:104CB000BA68126902430A439A60FB681B68FA6883
:104CC0001268D26822F08002DA60FB681B689B6879
:104CD00003F02003002B11D1F86800F079F90346A6
:104CE000002B0BD0FB681B68FF225A62FB68042272
:104CF0005A77FB6800221A7701230AE0FB681B68D9
:104D0000FF225A62FB6801225A77FB6800221A7759
:104D1000002318461C37BD4690BD00BF80B586B045
:104D200000AFF860B9607A6000237B61FB681B68A4
:104D30009A6ABB685A60FB681B681B6803F07F3384
:104D400023F0FE437B617B6903F47C131B0CDAB216
:104D5000BB681A707B6903F4FE431B0ADAB2BB68B6
:104D60005A707B69DBB203F07F03DAB2BB689A70DA
:104D70007B6903F480031B0CDAB2BB681A727B6890
:104D8000002B1AD1BB681B78184600F097F9034630
:104D90001A46BB681A70BB685B78184600F08EF93B
:104DA00003461A46BB685A70BB689B78184600F0E9
:104DB00085F903461A46BB689A70002318461837CF
:104DC000BD4680BD90B587B000AFF860B9607A602D
:104DD00000237B61FB681B7F012B01D10223A2E032
:104DE000FB6801221A77FB6802225A777B68002B46
:104DF0000ED1BB685B7803F01003002B08D0BB68B2
:104E00005B7823F01003DBB20A33DAB2BB685A7066
:104E10007B68002B1CD1BB68DB78184600F030F9AA
:104E200003461C04BB685B78184600F029F903466A
:104E30001B021C43BB689B78184600F021F903460F
:104E400044EA0302BB681B785B0313437B611CE0ED
:104E5000BB685B78184600F031F903467B61BB689C
:104E60009B78184600F02AF903467B61BB68DB7823
:104E70001A04BB685B781B021343BA6892781A4322
:104E8000BB681B785B0313437B61FB681B68CA220A
:104E90005A62FB681B6853225A62F86800F0C2F835
:104EA0000346002B0BD0FB681B68FF225A62FB688D
:104EB00004225A77FB6800221A77012333E0FB684B
:104EC0001A687B6923F07F4323F0C0035360FB68BB
:104ED0001B68FA681268D26822F08002DA60FB6808
:104EE0001B689B6803F02003002B11D1F86800F0C9
:104EF0006FF80346002B0BD0FB681B68FF225A6239
:104F0000FB6804225A77FB6800221A7701230AE023
:104F1000FB681B68FF225A62FB6801225A77FB6814
:104F200000221A77002318461C37BD4690BD00BFEB
:104F300080B586B000AFF860B9607A6000237B610D
:104F4000FB681B685B6823F07F4323F0C0037B6131
:104F50007B6903F47F031B0CDAB2BB68DA707B69F0
:104F600003F4F8531B0ADAB2BB685A707B69DBB2F0
:104F700003F03F03DAB2BB689A707B6903F46043C5
:104F80005B0BDAB2BB681A707B68002B1AD1BB6866
:104F9000DB78184600F092F803461A46BB68DA70D0
:104FA000BB685B78184600F089F803461A46BB6870
:104FB0005A70BB689B78184600F080F803461A4682
:104FC000BB689A70002318461837BD4680BD00BFE5
:104FD00080B584B000AF78600023FB607B681B68FD
:104FE0007A681268D26822F0A002DA600CF0AAF99E
:104FF000034603F57A73FB6007E00CF0A3F9024661
:10500000FB689A4201D3032307E07B681B68DB68D7
:1050100003F02003002BF0D0002318461037BD46C4
:1050200080BD00BF80B584B000AF78600023FB6016
:105030007B681B68DB6803F04003002B1AD17B6898
:105040001B684FF0FF32DA600CF07CF9034603F581
:105050007A73FB6007E00CF075F90246FB689A4230
:1050600001D3032307E07B681B68DB6803F0400380
:10507000002BF0D0002318461037BD4680BD00BF7E
:1050800080B485B000AF0346FB710023FB6005E0F0
:10509000FB680133FB60FB790A3BFB71FB79092B51
:1050A000F6D8FB68DBB21B01DAB2FB791343DBB243
:1050B00018461437BD465DF8047B704780B485B050
:1050C00000AF0346FB710023FB60FB791B09DBB2D9
:1050D0001A4613469B0013445B00FB60FB7903F008
:1050E0000F03DAB2FB68DBB21344DBB218461437A5
:1050F000BD465DF8047B704780B400AFBFF34F8FAF
:105100000549054BDB6803F4E062044B1343CB60B5
:10511000BFF34F8FFEE700BF00ED00E00400FA058B
:1051200080B582B000AF124B7B60124B3B6007E052
:105130003B681A1D3A607A68111D796012681A601E
:105140003B680D4A9342F3D30D480E494FF00002DD
:105150008842B8BF40F8042BFADB084B4FF00062DE
:105160009A6015F0BFFA08F0D5FE0837BD4680BD3D
:1051700004DC020800000020E40E002000ED00E046
:10518000E80E002070C4012080B58CB000AF7860BC
:1051900039607B681B68FB627B685B68BB627B680D
:1051A0009B687B627B68DB683B627B681B69FB6199
:1051B0007B685B69BB617B689B697B617B68DB6942
:1051C0003B610A20F96A00F085FE0B20B96A00F005
:1051D00081FE0C20796A00F07DFE0D20396A00F016
:1051E00079FE0E20F96900F075FE0F20B96900F014
:1051F00071FE1020796900F06DFE1120396900F010
:1052000069FE1320396800F065FE122000F072FE7E
:105210000346FB60FB680133FB601220F96800F075
:1052200059FEFFF769FF3037BD4680BD80B400AF3F
:105230001EF0040F0CBFEFF30880EFF309804FF06E
:105240000101FFF7A1FFBD465DF8047B704700BF79
:1052500080B400AF1EF0040F0CBFEFF30880EFF333
:1052600009804FF00201FFF78FFFBD465DF8047B18
:10527000704700BF80B400AF1EF0040F0CBFEFF307
:105280000880EFF309804FF00301FFF77DFFBD4673
:105290005DF8047B704700BF80B400AF1EF0040FC0
:1052A0000CBFEFF30880EFF309804FF00401FFF724
:1052B0006BFFBD465DF8047B704700BF80B400AF54
:1052C0001EF0040F0CBFEFF30880EFF309804FF0DE
:1052D0000501FFF759FFBD465DF8047B704700BF2D
:1052E00080B400AF1EF0040F0CBFEFF30880EFF3A3
:1052F00009804FF00701FFF747FFBD465DF8047BCB
:10530000704700BF80B400AF1EF0040F0CBFEFF376
:105310000880EFF309804FF00A01FFF735FFBD4623
:105320005DF8047B704700BF80B400AF1EF0040F2F
:105330000CBFEFF30880EFF309804FF00B01FFF78C
:1053400023FFBD465DF8047B704700BF80B400AF0B
:105350001EF0040F0CBFEFF30880EFF309804FF04D
:105360000C01FFF711FFBD465DF8047B704700BFDD
:1053700080B400AF1EF0040F0CBFEFF30880EFF312
:1053800009804FF00D01FFF7FFFEBD465DF8047B7D
:10539000704700BF80B400AF1EF0040F0CBFEFF3E6
:1053A0000880EFF309804FF00E01FFF7EDFEBD46D8
:1053B0005DF8047B704700BF80B400AF1EF0040F9F
:1053C0000CBFEFF30880EFF309804FF00F01FFF7F8
:1053D000DBFEBD465DF8047B704700BF80B400AFC4
:1053E0001EF0040F0CBFEFF30880EFF309804FF0BD
:1053F0001001FFF7C9FEBD465DF8047B704700BF92
:1054000080B400AF1EF0040F0CBFEFF30880EFF381
:1054100009804FF01101FFF7B7FEBD465DF8047B30
:10542000704700BF80B400AF1EF0040F0CBFEFF355
:105430000880EFF309804FF01201FFF7A5FEBD468B
:105440005DF8047B704700BF80B400AF1EF0040F0E
:105450000CBFEFF30880EFF309804FF01301FFF763
:1054600093FEBD465DF8047B704700BF80B400AF7B
:105470001EF0040F0CBFEFF30880EFF309804FF02C
:105480001501FFF781FEBD465DF8047B704700BF44
:1054900080B400AF1EF0040F0CBFEFF30880EFF3F1
:1054A00009804FF01701FFF76FFEBD465DF8047BE2
:1054B000704700BF80B400AF1EF0040F0CBFEFF3C5
:1054C0000880EFF309804FF01801FFF75DFEBD463D
:1054D0005DF8047B704700BF80B400AF1EF0040F7E
:1054E0000CBFEFF30880EFF309804FF01901FFF7CD
:1054F0004BFEBD465DF8047B704700BF80B400AF33
:105500001EF0040F0CBFEFF30880EFF309804FF09B
:105510001C01FFF739FEBD465DF8047B704700BFF4
:1055200080B400AF1EF0040F0CBFEFF30880EFF360
:1055300009804FF01D01FFF727FEBD465DF8047B93
:10554000704700BF80B400AF1EF0040F0CBFEFF334
:105550000880EFF309804FF01E01FFF715FEBD46EE
:105560005DF8047B704700BF80B400AF1EF0040FED
:105570000CBFEFF30880EFF309804FF01F01FFF736
:1055800003FEBD465DF8047B704700BF80B400AFEA
:105590001EF0040F0CBFEFF30880EFF309804FF00B
:1055A0002001FFF7F1FDBD465DF8047B704700BFA9
:1055B00080B400AF1EF0040F0CBFEFF30880EFF3D0
:1055C00009804FF02101FFF7DFFDBD465DF8047B48
:1055D000704700BF80B400AF1EF0040F0CBFEFF3A4
:1055E0000880EFF309804FF02201FFF7CDFDBD46A3
:1055F0005DF8047B704700BF80B400AF1EF0040F5D
:105600000CBFEFF30880EFF309804FF02301FFF7A1
:10561000BBFDBD465DF8047B704700BF80B400AFA2
:105620001EF0040F0CBFEFF30880EFF309804FF07A
:105630002401FFF7A9FDBD465DF8047B704700BF5C
:1056400080B400AF1EF0040F0CBFEFF30880EFF33F
:1056500009804FF02501FFF797FDBD465DF8047BFB
:10566000704700BF80B400AF1EF0040F0CBFEFF313
:105670000880EFF309804FF02601FFF785FDBD4656
:105680005DF8047B704700BF80B400AF1EF0040FCC
:105690000CBFEFF30880EFF309804FF02701FFF70D
:1056A00073FDBD465DF8047B704700BF80B400AF5A
:1056B0001EF0040F0CBFEFF30880EFF309804FF0EA
:1056C0002901FFF761FDBD465DF8047B704700BF0F
:1056D00080B400AF1EF0040F0CBFEFF30880EFF3AF
:1056E00009804FF02A01FFF74FFDBD465DF8047BAE
:1056F000704700BF80B400AF1EF0040F0CBFEFF383
:105700000880EFF309804FF02B01FFF73DFDBD4608
:105710005DF8047B704700BF80B400AF1EF0040F3B
:105720000CBFEFF30880EFF309804FF02C01FFF777
:105730002BFDBD465DF8047B704700BF80B400AF11
:105740001EF0040F0CBFEFF30880EFF309804FF059
:105750002D01FFF719FDBD465DF8047B704700BFC2
:1057600080B400AF1EF0040F0CBFEFF30880EFF31E
:1057700009804FF02E01FFF707FDBD465DF8047B61
:10578000704700BF80B400AF1EF0040F0CBFEFF3F2
:105790000880EFF309804FF02F01FFF7F5FCBD46BD
:1057A0005DF8047B704700BF80B400AF1EF0040FAB
:1057B0000CBFEFF30880EFF309804FF03001FFF7E3
:1057C000E3FCBD465DF8047B704700BF80B400AFCA
:1057D0001EF0040F0CBFEFF30880EFF309804FF0C9
:1057E0003101FFF7D1FCBD465DF8047B704700BF77
:1057F00080B400AF1EF0040F0CBFEFF30880EFF38E
:1058000009804FF03201FFF7BFFCBD465DF8047B15
:10581000704700BF80B400AF1EF0040F0CBFEFF361
:105820000880EFF309804FF03301FFF7ADFCBD4670
:105830005DF8047B704700BF80B400AF1EF0040F1A
:105840000CBFEFF30880EFF309804FF03401FFF74E
:105850009BFCBD465DF8047B704700BF80B400AF81
:105860001EF0040F0CBFEFF30880EFF309804FF038
:105870003501FFF789FCBD465DF8047B704700BF2A
:1058800080B400AF1EF0040F0CBFEFF30880EFF3FD
:1058900009804FF03601FFF777FCBD465DF8047BC9
:1058A000704700BF80B400AF1EF0040F0CBFEFF3D1
:1058B0000880EFF309804FF03701FFF765FCBD4624
:1058C0005DF8047B704700BF80B400AF1EF0040F8A
:1058D0000CBFEFF30880EFF309804FF03801FFF7BA
:1058E00053FCBD465DF8047B704700BF80B400AF39
:1058F0001EF0040F0CBFEFF30880EFF309804FF0A8
:105900003A01FFF741FCBD465DF8047B704700BFDC
:1059100080B400AF1EF0040F0CBFEFF30880EFF36C
:1059200009804FF03B01FFF72FFCBD465DF8047B7B
:10593000704700BF80B400AF1EF0040F0CBFEFF340
:105940000880EFF309804FF03C01FFF71DFCBD46D6
:105950005DF8047B704700BF80B400AF1EF0040FF9
:105960000CBFEFF30880EFF309804FF03D01FFF724
:105970000BFCBD465DF8047B704700BF80B400AFF0
:105980001EF0040F0CBFEFF30880EFF309804FF017
:105990003E01FFF7F9FBBD465DF8047B704700BF91
:1059A00080B400AF1EF0040F0CBFEFF30880EFF3DC
:1059B00009804FF04001FFF7E7FBBD465DF8047B2F
:1059C000704700BF80B400AF1EF0040F0CBFEFF3B0
:1059D0000880EFF309804FF04101FFF7D5FBBD468A
:1059E0005DF8047B704700BF80B400AF1EF0040F69
:1059F0000CBFEFF30880EFF309804FF04201FFF78F
:105A0000C3FBBD465DF8047B704700BF80B400AFA8
:105A10001EF0040F0CBFEFF30880EFF309804FF086
:105A20004301FFF7B1FBBD465DF8047B704700BF43
:105A300080B400AF1EF0040F0CBFEFF30880EFF34B
:105A400009804FF04401FFF79FFBBD465DF8047BE2
:105A5000704700BF80B400AF1EF0040F0CBFEFF31F
:105A60000880EFF309804FF04501FFF78DFBBD463D
:105A70005DF8047B704700BF80B400AF1EF0040FD8
:105A80000CBFEFF30880EFF309804FF04601FFF7FA
:105A90007BFBBD465DF8047B704700BF80B400AF60
:105AA0001EF0040F0CBFEFF30880EFF309804FF0F6
:105AB0004701FFF769FBBD465DF8047B704700BFF7
:105AC00080B400AF1EF0040F0CBFEFF30880EFF3BB
:105AD00009804FF04801FFF757FBBD465DF8047B96
